{"contracts/lotteryGame.sol":{"LotteryGame":{"abi":[{"inputs":[{"internalType":"uint64","name":"lotterTicketLimit","type":"uint64"},{"internalType":"uint256","name":"ticketPrice","type":"uint256"}],"stateMutability":"nonpayable","type":"constructor"},{"anonymous":false,"inputs":[{"indexed":false,"internalType":"address","name":"walletAddress","type":"address"},{"indexed":false,"internalType":"uint256","name":"noOfTicket","type":"uint256"}],"name":"Purchase","type":"event"},{"inputs":[],"name":"announceLotteryWinner","outputs":[],"stateMutability":"payable","type":"function"},{"inputs":[],"name":"currentLotteryCollection","outputs":[{"internalType":"uint256","name":"","type":"uint256"}],"stateMutability":"view","type":"function"},{"inputs":[{"internalType":"uint256","name":"tickedId","type":"uint256"}],"name":"getTicketOwner","outputs":[{"internalType":"address","name":"","type":"address"}],"stateMutability":"view","type":"function"},{"inputs":[],"name":"lastTicketWinner","outputs":[{"internalType":"uint256","name":"","type":"uint256"}],"stateMutability":"view","type":"function"},{"inputs":[],"name":"lastWinner","outputs":[{"internalType":"address","name":"","type":"address"}],"stateMutability":"view","type":"function"},{"inputs":[],"name":"priceOfTicket","outputs":[{"internalType":"uint256","name":"","type":"uint256"}],"stateMutability":"view","type":"function"},{"inputs":[{"internalType":"uint256","name":"noOfTicket","type":"uint256"},{"internalType":"address","name":"wallet","type":"address"}],"name":"purchaseLottery","outputs":[],"stateMutability":"payable","type":"function"},{"inputs":[],"name":"ticketLimit","outputs":[{"internalType":"uint128","name":"","type":"uint128"}],"stateMutability":"view","type":"function"},{"inputs":[],"name":"totalTicketSold","outputs":[{"internalType":"uint128","name":"","type":"uint128"}],"stateMutability":"view","type":"function"},{"inputs":[{"internalType":"uint64","name":"newTicketLimit","type":"uint64"}],"name":"updateTicketLimit","outputs":[],"stateMutability":"nonpayable","type":"function"},{"inputs":[{"internalType":"uint256","name":"ticketPrice","type":"uint256"}],"name":"updateTicketPrice","outputs":[],"stateMutability":"nonpayable","type":"function"}],"evm":{"bytecode":{"linkReferences":{},"object":"608060405234801561001057600080fd5b5060405161093038038061093083398101604081905261002f91610057565b6001600160401b03909116600055600155600280546001600160a01b03191633179055610091565b6000806040838503121561006a57600080fd5b82516001600160401b038116811461008157600080fd5b6020939093015192949293505050565b610890806100a06000396000f3fe60806040526004361061009b5760003560e01c8063ad09340911610064578063ad09340914610133578063df393cf81461016b578063f02137c814610181578063f655ae77146101a1578063faf04f79146101b4578063fe188184146101d957600080fd5b8062a70e03146100a05780630de45047146100c457806353269a5f146100d95780635e321dfc146100e157806369a6a12e14610113575b600080fd5b3480156100ac57600080fd5b506001545b6040519081526020015b60405180910390f35b6100d76100d23660046106b6565b6101f9565b005b6100d76102f5565b3480156100ed57600080fd5b506000546001600160801b03165b6040516001600160801b0390911681526020016100bb565b34801561011f57600080fd5b506100d761012e3660046106f2565b610395565b34801561013f57600080fd5b5061015361014e366004610723565b6103de565b6040516001600160a01b0390911681526020016100bb565b34801561017757600080fd5b506100b160045481565b34801561018d57600080fd5b506100d761019c366004610723565b61040e565b3480156101ad57600080fd5b50476100b1565b3480156101c057600080fd5b50600054600160801b90046001600160801b03166100fb565b3480156101e557600080fd5b50600354610153906001600160a01b031681565b6000821161020657600080fd5b6000546001600160801b0380821691610228918591600160801b900416610752565b11156102725760405162461bcd60e51b8152602060048201526014602482015273022bc31b2b2b2102a34b1b5b2ba102634b6b4ba160651b60448201526064015b60405180910390fd5b60015461027f908361076b565b341461028a57600080fd5b60005b828110156102ae5761029e8261043d565b6102a781610782565b905061028d565b50604080516001600160a01b0383168152602081018490527f2499a5330ab0979cc612135e7883ebc3cd5c9f7a8508f042540c34723348f632910160405180910390a15050565b6002546001600160a01b0316331461031f5760405162461bcd60e51b81526004016102699061079b565b600054600160801b81046001600160801b0390811691161461037b5760405162461bcd60e51b8152602060048201526015602482015274151a58dad95d081b9bdd08199d5b1b1e481cdbdb19605a1b6044820152606401610269565b610384336104cc565b600080546001600160801b03169055565b6002546001600160a01b031633146103bf5760405162461bcd60e51b81526004016102699061079b565b600080546fffffffffffffffffffffffffffffffff1916919091179055565b6000600582815481106103f3576103f36107c2565b6000918252602090912001546001600160a01b031692915050565b6002546001600160a01b031633146104385760405162461bcd60e51b81526004016102699061079b565b600155565b6005805460018101825560009182527f036b6384b5eca791c62761152d0c79bb0604c104a5fb6f4eb0703f3154bb3db00180546001600160a01b0319166001600160a01b03841617905580546010906104a590600160801b90046001600160801b03166107d8565b91906101000a8154816001600160801b0302191690836001600160801b0316021790555050565b6002546001600160a01b031633146104f65760405162461bcd60e51b81526004016102699061079b565b6000813a4342446105086001846107fe565b600054904090610523906001906001600160801b0316610811565b604080516001600160a01b0390981660208901528701959095526060860193909352608085019190915260a084015260c08301526001600160801b031660e08201526101000160408051601f198184030181529190528051602090910120600080549192509061059c906001600160801b031683610838565b90506000600582815481106105b3576105b36107c2565b60009182526020822001546040516001600160a01b03909116925082914780156108fc02929091818181858888f193505050501580156105f7573d6000803e3d6000fd5b506004829055600380546001600160a01b0319166001600160a01b03831617905560408051600081526020810191829052516106359160059161063c565b5050505050565b828054828255906000526020600020908101928215610691579160200282015b8281111561069157825182546001600160a01b0319166001600160a01b0390911617825560209092019160019091019061065c565b5061069d9291506106a1565b5090565b5b8082111561069d57600081556001016106a2565b600080604083850312156106c957600080fd5b8235915060208301356001600160a01b03811681146106e757600080fd5b809150509250929050565b60006020828403121561070457600080fd5b813567ffffffffffffffff8116811461071c57600080fd5b9392505050565b60006020828403121561073557600080fd5b5035919050565b634e487b7160e01b600052601160045260246000fd5b808201808211156107655761076561073c565b92915050565b80820281158282048414176107655761076561073c565b6000600182016107945761079461073c565b5060010190565b6020808252600d908201526c34b73b30b634b21037bbb732b960991b604082015260600190565b634e487b7160e01b600052603260045260246000fd5b60006001600160801b038083168181036107f4576107f461073c565b6001019392505050565b818103818111156107655761076561073c565b6001600160801b038281168282160390808211156108315761083161073c565b5092915050565b60008261085557634e487b7160e01b600052601260045260246000fd5b50069056fea264697066735822122003b2bfbca669055d679ed18f00e8c44be5c78e8d80d0e2881fa160d3363075cb64736f6c63430008120033","opcodes":"PUSH1 0x80 PUSH1 0x40 MSTORE CALLVALUE DUP1 ISZERO PUSH2 0x10 JUMPI PUSH1 0x0 DUP1 REVERT JUMPDEST POP PUSH1 0x40 MLOAD PUSH2 0x930 CODESIZE SUB DUP1 PUSH2 0x930 DUP4 CODECOPY DUP2 ADD PUSH1 0x40 DUP2 SWAP1 MSTORE PUSH2 0x2F SWAP2 PUSH2 0x57 JUMP JUMPDEST PUSH1 0x1 PUSH1 0x1 PUSH1 0x40 SHL SUB SWAP1 SWAP2 AND PUSH1 0x0 SSTORE PUSH1 0x1 SSTORE PUSH1 0x2 DUP1 SLOAD PUSH1 0x1 PUSH1 0x1 PUSH1 0xA0 SHL SUB NOT AND CALLER OR SWAP1 SSTORE PUSH2 0x91 JUMP JUMPDEST PUSH1 0x0 DUP1 PUSH1 0x40 DUP4 DUP6 SUB SLT ISZERO PUSH2 0x6A JUMPI PUSH1 0x0 DUP1 REVERT JUMPDEST DUP3 MLOAD PUSH1 0x1 PUSH1 0x1 PUSH1 0x40 SHL SUB DUP2 AND DUP2 EQ PUSH2 0x81 JUMPI PUSH1 0x0 DUP1 REVERT JUMPDEST PUSH1 0x20 SWAP4 SWAP1 SWAP4 ADD MLOAD SWAP3 SWAP5 SWAP3 SWAP4 POP POP POP JUMP JUMPDEST PUSH2 0x890 DUP1 PUSH2 0xA0 PUSH1 0x0 CODECOPY PUSH1 0x0 RETURN INVALID PUSH1 0x80 PUSH1 0x40 MSTORE PUSH1 0x4 CALLDATASIZE LT PUSH2 0x9B JUMPI PUSH1 0x0 CALLDATALOAD PUSH1 0xE0 SHR DUP1 PUSH4 0xAD093409 GT PUSH2 0x64 JUMPI DUP1 PUSH4 0xAD093409 EQ PUSH2 0x133 JUMPI DUP1 PUSH4 0xDF393CF8 EQ PUSH2 0x16B JUMPI DUP1 PUSH4 0xF02137C8 EQ PUSH2 0x181 JUMPI DUP1 PUSH4 0xF655AE77 EQ PUSH2 0x1A1 JUMPI DUP1 PUSH4 0xFAF04F79 EQ PUSH2 0x1B4 JUMPI DUP1 PUSH4 0xFE188184 EQ PUSH2 0x1D9 JUMPI PUSH1 0x0 DUP1 REVERT JUMPDEST DUP1 PUSH3 0xA70E03 EQ PUSH2 0xA0 JUMPI DUP1 PUSH4 0xDE45047 EQ PUSH2 0xC4 JUMPI DUP1 PUSH4 0x53269A5F EQ PUSH2 0xD9 JUMPI DUP1 PUSH4 0x5E321DFC EQ PUSH2 0xE1 JUMPI DUP1 PUSH4 0x69A6A12E EQ PUSH2 0x113 JUMPI JUMPDEST PUSH1 0x0 DUP1 REVERT JUMPDEST CALLVALUE DUP1 ISZERO PUSH2 0xAC JUMPI PUSH1 0x0 DUP1 REVERT JUMPDEST POP PUSH1 0x1 SLOAD JUMPDEST PUSH1 0x40 MLOAD SWAP1 DUP2 MSTORE PUSH1 0x20 ADD JUMPDEST PUSH1 0x40 MLOAD DUP1 SWAP2 SUB SWAP1 RETURN JUMPDEST PUSH2 0xD7 PUSH2 0xD2 CALLDATASIZE PUSH1 0x4 PUSH2 0x6B6 JUMP JUMPDEST PUSH2 0x1F9 JUMP JUMPDEST STOP JUMPDEST PUSH2 0xD7 PUSH2 0x2F5 JUMP JUMPDEST CALLVALUE DUP1 ISZERO PUSH2 0xED JUMPI PUSH1 0x0 DUP1 REVERT JUMPDEST POP PUSH1 0x0 SLOAD PUSH1 0x1 PUSH1 0x1 PUSH1 0x80 SHL SUB AND JUMPDEST PUSH1 0x40 MLOAD PUSH1 0x1 PUSH1 0x1 PUSH1 0x80 SHL SUB SWAP1 SWAP2 AND DUP2 MSTORE PUSH1 0x20 ADD PUSH2 0xBB JUMP JUMPDEST CALLVALUE DUP1 ISZERO PUSH2 0x11F JUMPI PUSH1 0x0 DUP1 REVERT JUMPDEST POP PUSH2 0xD7 PUSH2 0x12E CALLDATASIZE PUSH1 0x4 PUSH2 0x6F2 JUMP JUMPDEST PUSH2 0x395 JUMP JUMPDEST CALLVALUE DUP1 ISZERO PUSH2 0x13F JUMPI PUSH1 0x0 DUP1 REVERT JUMPDEST POP PUSH2 0x153 PUSH2 0x14E CALLDATASIZE PUSH1 0x4 PUSH2 0x723 JUMP JUMPDEST PUSH2 0x3DE JUMP JUMPDEST PUSH1 0x40 MLOAD PUSH1 0x1 PUSH1 0x1 PUSH1 0xA0 SHL SUB SWAP1 SWAP2 AND DUP2 MSTORE PUSH1 0x20 ADD PUSH2 0xBB JUMP JUMPDEST CALLVALUE DUP1 ISZERO PUSH2 0x177 JUMPI PUSH1 0x0 DUP1 REVERT JUMPDEST POP PUSH2 0xB1 PUSH1 0x4 SLOAD DUP2 JUMP JUMPDEST CALLVALUE DUP1 ISZERO PUSH2 0x18D JUMPI PUSH1 0x0 DUP1 REVERT JUMPDEST POP PUSH2 0xD7 PUSH2 0x19C CALLDATASIZE PUSH1 0x4 PUSH2 0x723 JUMP JUMPDEST PUSH2 0x40E JUMP JUMPDEST CALLVALUE DUP1 ISZERO PUSH2 0x1AD JUMPI PUSH1 0x0 DUP1 REVERT JUMPDEST POP SELFBALANCE PUSH2 0xB1 JUMP JUMPDEST CALLVALUE DUP1 ISZERO PUSH2 0x1C0 JUMPI PUSH1 0x0 DUP1 REVERT JUMPDEST POP PUSH1 0x0 SLOAD PUSH1 0x1 PUSH1 0x80 SHL SWAP1 DIV PUSH1 0x1 PUSH1 0x1 PUSH1 0x80 SHL SUB AND PUSH2 0xFB JUMP JUMPDEST CALLVALUE DUP1 ISZERO PUSH2 0x1E5 JUMPI PUSH1 0x0 DUP1 REVERT JUMPDEST POP PUSH1 0x3 SLOAD PUSH2 0x153 SWAP1 PUSH1 0x1 PUSH1 0x1 PUSH1 0xA0 SHL SUB AND DUP2 JUMP JUMPDEST PUSH1 0x0 DUP3 GT PUSH2 0x206 JUMPI PUSH1 0x0 DUP1 REVERT JUMPDEST PUSH1 0x0 SLOAD PUSH1 0x1 PUSH1 0x1 PUSH1 0x80 SHL SUB DUP1 DUP3 AND SWAP2 PUSH2 0x228 SWAP2 DUP6 SWAP2 PUSH1 0x1 PUSH1 0x80 SHL SWAP1 DIV AND PUSH2 0x752 JUMP JUMPDEST GT ISZERO PUSH2 0x272 JUMPI PUSH1 0x40 MLOAD PUSH3 0x461BCD PUSH1 0xE5 SHL DUP2 MSTORE PUSH1 0x20 PUSH1 0x4 DUP3 ADD MSTORE PUSH1 0x14 PUSH1 0x24 DUP3 ADD MSTORE PUSH20 0x22BC31B2B2B2102A34B1B5B2BA102634B6B4BA1 PUSH1 0x65 SHL PUSH1 0x44 DUP3 ADD MSTORE PUSH1 0x64 ADD JUMPDEST PUSH1 0x40 MLOAD DUP1 SWAP2 SUB SWAP1 REVERT JUMPDEST PUSH1 0x1 SLOAD PUSH2 0x27F SWAP1 DUP4 PUSH2 0x76B JUMP JUMPDEST CALLVALUE EQ PUSH2 0x28A JUMPI PUSH1 0x0 DUP1 REVERT JUMPDEST PUSH1 0x0 JUMPDEST DUP3 DUP2 LT ISZERO PUSH2 0x2AE JUMPI PUSH2 0x29E DUP3 PUSH2 0x43D JUMP JUMPDEST PUSH2 0x2A7 DUP2 PUSH2 0x782 JUMP JUMPDEST SWAP1 POP PUSH2 0x28D JUMP JUMPDEST POP PUSH1 0x40 DUP1 MLOAD PUSH1 0x1 PUSH1 0x1 PUSH1 0xA0 SHL SUB DUP4 AND DUP2 MSTORE PUSH1 0x20 DUP2 ADD DUP5 SWAP1 MSTORE PUSH32 0x2499A5330AB0979CC612135E7883EBC3CD5C9F7A8508F042540C34723348F632 SWAP2 ADD PUSH1 0x40 MLOAD DUP1 SWAP2 SUB SWAP1 LOG1 POP POP JUMP JUMPDEST PUSH1 0x2 SLOAD PUSH1 0x1 PUSH1 0x1 PUSH1 0xA0 SHL SUB AND CALLER EQ PUSH2 0x31F JUMPI PUSH1 0x40 MLOAD PUSH3 0x461BCD PUSH1 0xE5 SHL DUP2 MSTORE PUSH1 0x4 ADD PUSH2 0x269 SWAP1 PUSH2 0x79B JUMP JUMPDEST PUSH1 0x0 SLOAD PUSH1 0x1 PUSH1 0x80 SHL DUP2 DIV PUSH1 0x1 PUSH1 0x1 PUSH1 0x80 SHL SUB SWAP1 DUP2 AND SWAP2 AND EQ PUSH2 0x37B JUMPI PUSH1 0x40 MLOAD PUSH3 0x461BCD PUSH1 0xE5 SHL DUP2 MSTORE PUSH1 0x20 PUSH1 0x4 DUP3 ADD MSTORE PUSH1 0x15 PUSH1 0x24 DUP3 ADD MSTORE PUSH21 0x151A58DAD95D081B9BDD08199D5B1B1E481CDBDB19 PUSH1 0x5A SHL PUSH1 0x44 DUP3 ADD MSTORE PUSH1 0x64 ADD PUSH2 0x269 JUMP JUMPDEST PUSH2 0x384 CALLER PUSH2 0x4CC JUMP JUMPDEST PUSH1 0x0 DUP1 SLOAD PUSH1 0x1 PUSH1 0x1 PUSH1 0x80 SHL SUB AND SWAP1 SSTORE JUMP JUMPDEST PUSH1 0x2 SLOAD PUSH1 0x1 PUSH1 0x1 PUSH1 0xA0 SHL SUB AND CALLER EQ PUSH2 0x3BF JUMPI PUSH1 0x40 MLOAD PUSH3 0x461BCD PUSH1 0xE5 SHL DUP2 MSTORE PUSH1 0x4 ADD PUSH2 0x269 SWAP1 PUSH2 0x79B JUMP JUMPDEST PUSH1 0x0 DUP1 SLOAD PUSH16 0xFFFFFFFFFFFFFFFFFFFFFFFFFFFFFFFF NOT AND SWAP2 SWAP1 SWAP2 OR SWAP1 SSTORE JUMP JUMPDEST PUSH1 0x0 PUSH1 0x5 DUP3 DUP2 SLOAD DUP2 LT PUSH2 0x3F3 JUMPI PUSH2 0x3F3 PUSH2 0x7C2 JUMP JUMPDEST PUSH1 0x0 SWAP2 DUP3 MSTORE PUSH1 0x20 SWAP1 SWAP2 KECCAK256 ADD SLOAD PUSH1 0x1 PUSH1 0x1 PUSH1 0xA0 SHL SUB AND SWAP3 SWAP2 POP POP JUMP JUMPDEST PUSH1 0x2 SLOAD PUSH1 0x1 PUSH1 0x1 PUSH1 0xA0 SHL SUB AND CALLER EQ PUSH2 0x438 JUMPI PUSH1 0x40 MLOAD PUSH3 0x461BCD PUSH1 0xE5 SHL DUP2 MSTORE PUSH1 0x4 ADD PUSH2 0x269 SWAP1 PUSH2 0x79B JUMP JUMPDEST PUSH1 0x1 SSTORE JUMP JUMPDEST PUSH1 0x5 DUP1 SLOAD PUSH1 0x1 DUP2 ADD DUP3 SSTORE PUSH1 0x0 SWAP2 DUP3 MSTORE PUSH32 0x36B6384B5ECA791C62761152D0C79BB0604C104A5FB6F4EB0703F3154BB3DB0 ADD DUP1 SLOAD PUSH1 0x1 PUSH1 0x1 PUSH1 0xA0 SHL SUB NOT AND PUSH1 0x1 PUSH1 0x1 PUSH1 0xA0 SHL SUB DUP5 AND OR SWAP1 SSTORE DUP1 SLOAD PUSH1 0x10 SWAP1 PUSH2 0x4A5 SWAP1 PUSH1 0x1 PUSH1 0x80 SHL SWAP1 DIV PUSH1 0x1 PUSH1 0x1 PUSH1 0x80 SHL SUB AND PUSH2 0x7D8 JUMP JUMPDEST SWAP2 SWAP1 PUSH2 0x100 EXP DUP2 SLOAD DUP2 PUSH1 0x1 PUSH1 0x1 PUSH1 0x80 SHL SUB MUL NOT AND SWAP1 DUP4 PUSH1 0x1 PUSH1 0x1 PUSH1 0x80 SHL SUB AND MUL OR SWAP1 SSTORE POP POP JUMP JUMPDEST PUSH1 0x2 SLOAD PUSH1 0x1 PUSH1 0x1 PUSH1 0xA0 SHL SUB AND CALLER EQ PUSH2 0x4F6 JUMPI PUSH1 0x40 MLOAD PUSH3 0x461BCD PUSH1 0xE5 SHL DUP2 MSTORE PUSH1 0x4 ADD PUSH2 0x269 SWAP1 PUSH2 0x79B JUMP JUMPDEST PUSH1 0x0 DUP2 GASPRICE NUMBER TIMESTAMP PREVRANDAO PUSH2 0x508 PUSH1 0x1 DUP5 PUSH2 0x7FE JUMP JUMPDEST PUSH1 0x0 SLOAD SWAP1 BLOCKHASH SWAP1 PUSH2 0x523 SWAP1 PUSH1 0x1 SWAP1 PUSH1 0x1 PUSH1 0x1 PUSH1 0x80 SHL SUB AND PUSH2 0x811 JUMP JUMPDEST PUSH1 0x40 DUP1 MLOAD PUSH1 0x1 PUSH1 0x1 PUSH1 0xA0 SHL SUB SWAP1 SWAP9 AND PUSH1 0x20 DUP10 ADD MSTORE DUP8 ADD SWAP6 SWAP1 SWAP6 MSTORE PUSH1 0x60 DUP7 ADD SWAP4 SWAP1 SWAP4 MSTORE PUSH1 0x80 DUP6 ADD SWAP2 SWAP1 SWAP2 MSTORE PUSH1 0xA0 DUP5 ADD MSTORE PUSH1 0xC0 DUP4 ADD MSTORE PUSH1 0x1 PUSH1 0x1 PUSH1 0x80 SHL SUB AND PUSH1 0xE0 DUP3 ADD MSTORE PUSH2 0x100 ADD PUSH1 0x40 DUP1 MLOAD PUSH1 0x1F NOT DUP2 DUP5 SUB ADD DUP2 MSTORE SWAP2 SWAP1 MSTORE DUP1 MLOAD PUSH1 0x20 SWAP1 SWAP2 ADD KECCAK256 PUSH1 0x0 DUP1 SLOAD SWAP2 SWAP3 POP SWAP1 PUSH2 0x59C SWAP1 PUSH1 0x1 PUSH1 0x1 PUSH1 0x80 SHL SUB AND DUP4 PUSH2 0x838 JUMP JUMPDEST SWAP1 POP PUSH1 0x0 PUSH1 0x5 DUP3 DUP2 SLOAD DUP2 LT PUSH2 0x5B3 JUMPI PUSH2 0x5B3 PUSH2 0x7C2 JUMP JUMPDEST PUSH1 0x0 SWAP2 DUP3 MSTORE PUSH1 0x20 DUP3 KECCAK256 ADD SLOAD PUSH1 0x40 MLOAD PUSH1 0x1 PUSH1 0x1 PUSH1 0xA0 SHL SUB SWAP1 SWAP2 AND SWAP3 POP DUP3 SWAP2 SELFBALANCE DUP1 ISZERO PUSH2 0x8FC MUL SWAP3 SWAP1 SWAP2 DUP2 DUP2 DUP2 DUP6 DUP9 DUP9 CALL SWAP4 POP POP POP POP ISZERO DUP1 ISZERO PUSH2 0x5F7 JUMPI RETURNDATASIZE PUSH1 0x0 DUP1 RETURNDATACOPY RETURNDATASIZE PUSH1 0x0 REVERT JUMPDEST POP PUSH1 0x4 DUP3 SWAP1 SSTORE PUSH1 0x3 DUP1 SLOAD PUSH1 0x1 PUSH1 0x1 PUSH1 0xA0 SHL SUB NOT AND PUSH1 0x1 PUSH1 0x1 PUSH1 0xA0 SHL SUB DUP4 AND OR SWAP1 SSTORE PUSH1 0x40 DUP1 MLOAD PUSH1 0x0 DUP2 MSTORE PUSH1 0x20 DUP2 ADD SWAP2 DUP3 SWAP1 MSTORE MLOAD PUSH2 0x635 SWAP2 PUSH1 0x5 SWAP2 PUSH2 0x63C JUMP JUMPDEST POP POP POP POP POP JUMP JUMPDEST DUP3 DUP1 SLOAD DUP3 DUP3 SSTORE SWAP1 PUSH1 0x0 MSTORE PUSH1 0x20 PUSH1 0x0 KECCAK256 SWAP1 DUP2 ADD SWAP3 DUP3 ISZERO PUSH2 0x691 JUMPI SWAP2 PUSH1 0x20 MUL DUP3 ADD JUMPDEST DUP3 DUP2 GT ISZERO PUSH2 0x691 JUMPI DUP3 MLOAD DUP3 SLOAD PUSH1 0x1 PUSH1 0x1 PUSH1 0xA0 SHL SUB NOT AND PUSH1 0x1 PUSH1 0x1 PUSH1 0xA0 SHL SUB SWAP1 SWAP2 AND OR DUP3 SSTORE PUSH1 0x20 SWAP1 SWAP3 ADD SWAP2 PUSH1 0x1 SWAP1 SWAP2 ADD SWAP1 PUSH2 0x65C JUMP JUMPDEST POP PUSH2 0x69D SWAP3 SWAP2 POP PUSH2 0x6A1 JUMP JUMPDEST POP SWAP1 JUMP JUMPDEST JUMPDEST DUP1 DUP3 GT ISZERO PUSH2 0x69D JUMPI PUSH1 0x0 DUP2 SSTORE PUSH1 0x1 ADD PUSH2 0x6A2 JUMP JUMPDEST PUSH1 0x0 DUP1 PUSH1 0x40 DUP4 DUP6 SUB SLT ISZERO PUSH2 0x6C9 JUMPI PUSH1 0x0 DUP1 REVERT JUMPDEST DUP3 CALLDATALOAD SWAP2 POP PUSH1 0x20 DUP4 ADD CALLDATALOAD PUSH1 0x1 PUSH1 0x1 PUSH1 0xA0 SHL SUB DUP2 AND DUP2 EQ PUSH2 0x6E7 JUMPI PUSH1 0x0 DUP1 REVERT JUMPDEST DUP1 SWAP2 POP POP SWAP3 POP SWAP3 SWAP1 POP JUMP JUMPDEST PUSH1 0x0 PUSH1 0x20 DUP3 DUP5 SUB SLT ISZERO PUSH2 0x704 JUMPI PUSH1 0x0 DUP1 REVERT JUMPDEST DUP2 CALLDATALOAD PUSH8 0xFFFFFFFFFFFFFFFF DUP2 AND DUP2 EQ PUSH2 0x71C JUMPI PUSH1 0x0 DUP1 REVERT JUMPDEST SWAP4 SWAP3 POP POP POP JUMP JUMPDEST PUSH1 0x0 PUSH1 0x20 DUP3 DUP5 SUB SLT ISZERO PUSH2 0x735 JUMPI PUSH1 0x0 DUP1 REVERT JUMPDEST POP CALLDATALOAD SWAP2 SWAP1 POP JUMP JUMPDEST PUSH4 0x4E487B71 PUSH1 0xE0 SHL PUSH1 0x0 MSTORE PUSH1 0x11 PUSH1 0x4 MSTORE PUSH1 0x24 PUSH1 0x0 REVERT JUMPDEST DUP1 DUP3 ADD DUP1 DUP3 GT ISZERO PUSH2 0x765 JUMPI PUSH2 0x765 PUSH2 0x73C JUMP JUMPDEST SWAP3 SWAP2 POP POP JUMP JUMPDEST DUP1 DUP3 MUL DUP2 ISZERO DUP3 DUP3 DIV DUP5 EQ OR PUSH2 0x765 JUMPI PUSH2 0x765 PUSH2 0x73C JUMP JUMPDEST PUSH1 0x0 PUSH1 0x1 DUP3 ADD PUSH2 0x794 JUMPI PUSH2 0x794 PUSH2 0x73C JUMP JUMPDEST POP PUSH1 0x1 ADD SWAP1 JUMP JUMPDEST PUSH1 0x20 DUP1 DUP3 MSTORE PUSH1 0xD SWAP1 DUP3 ADD MSTORE PUSH13 0x34B73B30B634B21037BBB732B9 PUSH1 0x99 SHL PUSH1 0x40 DUP3 ADD MSTORE PUSH1 0x60 ADD SWAP1 JUMP JUMPDEST PUSH4 0x4E487B71 PUSH1 0xE0 SHL PUSH1 0x0 MSTORE PUSH1 0x32 PUSH1 0x4 MSTORE PUSH1 0x24 PUSH1 0x0 REVERT JUMPDEST PUSH1 0x0 PUSH1 0x1 PUSH1 0x1 PUSH1 0x80 SHL SUB DUP1 DUP4 AND DUP2 DUP2 SUB PUSH2 0x7F4 JUMPI PUSH2 0x7F4 PUSH2 0x73C JUMP JUMPDEST PUSH1 0x1 ADD SWAP4 SWAP3 POP POP POP JUMP JUMPDEST DUP2 DUP2 SUB DUP2 DUP2 GT ISZERO PUSH2 0x765 JUMPI PUSH2 0x765 PUSH2 0x73C JUMP JUMPDEST PUSH1 0x1 PUSH1 0x1 PUSH1 0x80 SHL SUB DUP3 DUP2 AND DUP3 DUP3 AND SUB SWAP1 DUP1 DUP3 GT ISZERO PUSH2 0x831 JUMPI PUSH2 0x831 PUSH2 0x73C JUMP JUMPDEST POP SWAP3 SWAP2 POP POP JUMP JUMPDEST PUSH1 0x0 DUP3 PUSH2 0x855 JUMPI PUSH4 0x4E487B71 PUSH1 0xE0 SHL PUSH1 0x0 MSTORE PUSH1 0x12 PUSH1 0x4 MSTORE PUSH1 0x24 PUSH1 0x0 REVERT JUMPDEST POP MOD SWAP1 JUMP INVALID LOG2 PUSH5 0x6970667358 0x22 SLT KECCAK256 SUB 0xB2 0xBF 0xBC 0xA6 PUSH10 0x55D679ED18F00E8C44B 0xE5 0xC7 DUP15 DUP14 DUP1 0xD0 0xE2 DUP9 0x1F LOG1 PUSH1 0xD3 CALLDATASIZE ADDRESS PUSH22 0xCB64736F6C6343000812003300000000000000000000 "},"methodIdentifiers":{"announceLotteryWinner()":"53269a5f","currentLotteryCollection()":"f655ae77","getTicketOwner(uint256)":"ad093409","lastTicketWinner()":"df393cf8","lastWinner()":"fe188184","priceOfTicket()":"00a70e03","purchaseLottery(uint256,address)":"0de45047","ticketLimit()":"5e321dfc","totalTicketSold()":"faf04f79","updateTicketLimit(uint64)":"69a6a12e","updateTicketPrice(uint256)":"f02137c8"}}}}}