{
  "_format": "hh-sol-artifact-1",
  "contractName": "LotteryGame",
  "sourceName": "contracts/lotteryGame.sol",
  "abi": [
    {
      "inputs": [
        {
          "internalType": "uint64",
          "name": "lotterTicketLimit",
          "type": "uint64"
        },
        {
          "internalType": "uint256",
          "name": "ticketPrice",
          "type": "uint256"
        }
      ],
      "stateMutability": "nonpayable",
      "type": "constructor"
    },
    {
      "anonymous": false,
      "inputs": [
        {
          "indexed": false,
          "internalType": "address",
          "name": "walletAddress",
          "type": "address"
        },
        {
          "indexed": false,
          "internalType": "uint256",
          "name": "noOfTicket",
          "type": "uint256"
        }
      ],
      "name": "Purchase",
      "type": "event"
    },
    {
      "inputs": [],
      "name": "announceLotteryWinner",
      "outputs": [],
      "stateMutability": "payable",
      "type": "function"
    },
    {
      "inputs": [],
      "name": "currentLotteryCollection",
      "outputs": [
        {
          "internalType": "uint256",
          "name": "",
          "type": "uint256"
        }
      ],
      "stateMutability": "view",
      "type": "function"
    },
    {
      "inputs": [
        {
          "internalType": "uint256",
          "name": "tickedId",
          "type": "uint256"
        }
      ],
      "name": "getTicketOwner",
      "outputs": [
        {
          "internalType": "address",
          "name": "",
          "type": "address"
        }
      ],
      "stateMutability": "view",
      "type": "function"
    },
    {
      "inputs": [],
      "name": "lastTicketWinner",
      "outputs": [
        {
          "internalType": "uint256",
          "name": "",
          "type": "uint256"
        }
      ],
      "stateMutability": "view",
      "type": "function"
    },
    {
      "inputs": [],
      "name": "lastWinner",
      "outputs": [
        {
          "internalType": "address",
          "name": "",
          "type": "address"
        }
      ],
      "stateMutability": "view",
      "type": "function"
    },
    {
      "inputs": [],
      "name": "priceOfTicket",
      "outputs": [
        {
          "internalType": "uint256",
          "name": "",
          "type": "uint256"
        }
      ],
      "stateMutability": "view",
      "type": "function"
    },
    {
      "inputs": [
        {
          "internalType": "uint256",
          "name": "noOfTicket",
          "type": "uint256"
        },
        {
          "internalType": "address",
          "name": "wallet",
          "type": "address"
        }
      ],
      "name": "purchaseLottery",
      "outputs": [],
      "stateMutability": "payable",
      "type": "function"
    },
    {
      "inputs": [],
      "name": "ticketLimit",
      "outputs": [
        {
          "internalType": "uint128",
          "name": "",
          "type": "uint128"
        }
      ],
      "stateMutability": "view",
      "type": "function"
    },
    {
      "inputs": [],
      "name": "totalTicketSold",
      "outputs": [
        {
          "internalType": "uint128",
          "name": "",
          "type": "uint128"
        }
      ],
      "stateMutability": "view",
      "type": "function"
    },
    {
      "inputs": [
        {
          "internalType": "uint64",
          "name": "newTicketLimit",
          "type": "uint64"
        }
      ],
      "name": "updateTicketLimit",
      "outputs": [],
      "stateMutability": "nonpayable",
      "type": "function"
    },
    {
      "inputs": [
        {
          "internalType": "uint256",
          "name": "ticketPrice",
          "type": "uint256"
        }
      ],
      "name": "updateTicketPrice",
      "outputs": [],
      "stateMutability": "nonpayable",
      "type": "function"
    }
  ],
  "bytecode": "0x608060405234801561001057600080fd5b5060405161093038038061093083398101604081905261002f91610057565b6001600160401b03909116600055600155600280546001600160a01b03191633179055610091565b6000806040838503121561006a57600080fd5b82516001600160401b038116811461008157600080fd5b6020939093015192949293505050565b610890806100a06000396000f3fe60806040526004361061009b5760003560e01c8063ad09340911610064578063ad09340914610133578063df393cf81461016b578063f02137c814610181578063f655ae77146101a1578063faf04f79146101b4578063fe188184146101d957600080fd5b8062a70e03146100a05780630de45047146100c457806353269a5f146100d95780635e321dfc146100e157806369a6a12e14610113575b600080fd5b3480156100ac57600080fd5b506001545b6040519081526020015b60405180910390f35b6100d76100d23660046106b6565b6101f9565b005b6100d76102f5565b3480156100ed57600080fd5b506000546001600160801b03165b6040516001600160801b0390911681526020016100bb565b34801561011f57600080fd5b506100d761012e3660046106f2565b610395565b34801561013f57600080fd5b5061015361014e366004610723565b6103de565b6040516001600160a01b0390911681526020016100bb565b34801561017757600080fd5b506100b160045481565b34801561018d57600080fd5b506100d761019c366004610723565b61040e565b3480156101ad57600080fd5b50476100b1565b3480156101c057600080fd5b50600054600160801b90046001600160801b03166100fb565b3480156101e557600080fd5b50600354610153906001600160a01b031681565b6000821161020657600080fd5b6000546001600160801b0380821691610228918591600160801b900416610752565b11156102725760405162461bcd60e51b8152602060048201526014602482015273022bc31b2b2b2102a34b1b5b2ba102634b6b4ba160651b60448201526064015b60405180910390fd5b60015461027f908361076b565b341461028a57600080fd5b60005b828110156102ae5761029e8261043d565b6102a781610782565b905061028d565b50604080516001600160a01b0383168152602081018490527f2499a5330ab0979cc612135e7883ebc3cd5c9f7a8508f042540c34723348f632910160405180910390a15050565b6002546001600160a01b0316331461031f5760405162461bcd60e51b81526004016102699061079b565b600054600160801b81046001600160801b0390811691161461037b5760405162461bcd60e51b8152602060048201526015602482015274151a58dad95d081b9bdd08199d5b1b1e481cdbdb19605a1b6044820152606401610269565b610384336104cc565b600080546001600160801b03169055565b6002546001600160a01b031633146103bf5760405162461bcd60e51b81526004016102699061079b565b600080546fffffffffffffffffffffffffffffffff1916919091179055565b6000600582815481106103f3576103f36107c2565b6000918252602090912001546001600160a01b031692915050565b6002546001600160a01b031633146104385760405162461bcd60e51b81526004016102699061079b565b600155565b6005805460018101825560009182527f036b6384b5eca791c62761152d0c79bb0604c104a5fb6f4eb0703f3154bb3db00180546001600160a01b0319166001600160a01b03841617905580546010906104a590600160801b90046001600160801b03166107d8565b91906101000a8154816001600160801b0302191690836001600160801b0316021790555050565b6002546001600160a01b031633146104f65760405162461bcd60e51b81526004016102699061079b565b6000813a4342446105086001846107fe565b600054904090610523906001906001600160801b0316610811565b604080516001600160a01b0390981660208901528701959095526060860193909352608085019190915260a084015260c08301526001600160801b031660e08201526101000160408051601f198184030181529190528051602090910120600080549192509061059c906001600160801b031683610838565b90506000600582815481106105b3576105b36107c2565b60009182526020822001546040516001600160a01b03909116925082914780156108fc02929091818181858888f193505050501580156105f7573d6000803e3d6000fd5b506004829055600380546001600160a01b0319166001600160a01b03831617905560408051600081526020810191829052516106359160059161063c565b5050505050565b828054828255906000526020600020908101928215610691579160200282015b8281111561069157825182546001600160a01b0319166001600160a01b0390911617825560209092019160019091019061065c565b5061069d9291506106a1565b5090565b5b8082111561069d57600081556001016106a2565b600080604083850312156106c957600080fd5b8235915060208301356001600160a01b03811681146106e757600080fd5b809150509250929050565b60006020828403121561070457600080fd5b813567ffffffffffffffff8116811461071c57600080fd5b9392505050565b60006020828403121561073557600080fd5b5035919050565b634e487b7160e01b600052601160045260246000fd5b808201808211156107655761076561073c565b92915050565b80820281158282048414176107655761076561073c565b6000600182016107945761079461073c565b5060010190565b6020808252600d908201526c34b73b30b634b21037bbb732b960991b604082015260600190565b634e487b7160e01b600052603260045260246000fd5b60006001600160801b038083168181036107f4576107f461073c565b6001019392505050565b818103818111156107655761076561073c565b6001600160801b038281168282160390808211156108315761083161073c565b5092915050565b60008261085557634e487b7160e01b600052601260045260246000fd5b50069056fea264697066735822122003b2bfbca669055d679ed18f00e8c44be5c78e8d80d0e2881fa160d3363075cb64736f6c63430008120033",
  "linkReferences": {},
  "deployedLinkReferences": {}
}